{
  "contractName": "VegaCoinCrowdsale",
  "abi": [
    {
      "constant": true,
      "inputs": [],
      "name": "ICO_SUPPLY",
      "outputs": [
        {
          "name": "",
          "type": "uint256"
        }
      ],
      "payable": false,
      "stateMutability": "view",
      "type": "function"
    },
    {
      "constant": true,
      "inputs": [],
      "name": "mintingFinished",
      "outputs": [
        {
          "name": "",
          "type": "bool"
        }
      ],
      "payable": false,
      "stateMutability": "view",
      "type": "function"
    },
    {
      "constant": true,
      "inputs": [],
      "name": "name",
      "outputs": [
        {
          "name": "",
          "type": "string"
        }
      ],
      "payable": false,
      "stateMutability": "view",
      "type": "function"
    },
    {
      "constant": false,
      "inputs": [
        {
          "name": "_spender",
          "type": "address"
        },
        {
          "name": "_value",
          "type": "uint256"
        }
      ],
      "name": "approve",
      "outputs": [
        {
          "name": "",
          "type": "bool"
        }
      ],
      "payable": false,
      "stateMutability": "nonpayable",
      "type": "function"
    },
    {
      "constant": true,
      "inputs": [],
      "name": "currentRoundEndDate",
      "outputs": [
        {
          "name": "",
          "type": "uint256"
        }
      ],
      "payable": false,
      "stateMutability": "view",
      "type": "function"
    },
    {
      "constant": true,
      "inputs": [],
      "name": "StartDate",
      "outputs": [
        {
          "name": "",
          "type": "uint32"
        }
      ],
      "payable": false,
      "stateMutability": "view",
      "type": "function"
    },
    {
      "constant": true,
      "inputs": [],
      "name": "currentRoundHardCap",
      "outputs": [
        {
          "name": "",
          "type": "uint256"
        }
      ],
      "payable": false,
      "stateMutability": "view",
      "type": "function"
    },
    {
      "constant": true,
      "inputs": [],
      "name": "totalSupply",
      "outputs": [
        {
          "name": "",
          "type": "uint256"
        }
      ],
      "payable": false,
      "stateMutability": "view",
      "type": "function"
    },
    {
      "constant": true,
      "inputs": [],
      "name": "EndDate",
      "outputs": [
        {
          "name": "",
          "type": "uint32"
        }
      ],
      "payable": false,
      "stateMutability": "view",
      "type": "function"
    },
    {
      "constant": true,
      "inputs": [],
      "name": "currentRoundBonus",
      "outputs": [
        {
          "name": "",
          "type": "uint8"
        }
      ],
      "payable": false,
      "stateMutability": "view",
      "type": "function"
    },
    {
      "constant": true,
      "inputs": [],
      "name": "MAX_BOUNTY_TOKENS",
      "outputs": [
        {
          "name": "",
          "type": "uint256"
        }
      ],
      "payable": false,
      "stateMutability": "view",
      "type": "function"
    },
    {
      "constant": true,
      "inputs": [],
      "name": "decimals",
      "outputs": [
        {
          "name": "",
          "type": "uint8"
        }
      ],
      "payable": false,
      "stateMutability": "view",
      "type": "function"
    },
    {
      "constant": true,
      "inputs": [],
      "name": "bountyCount",
      "outputs": [
        {
          "name": "",
          "type": "uint256"
        }
      ],
      "payable": false,
      "stateMutability": "view",
      "type": "function"
    },
    {
      "constant": false,
      "inputs": [],
      "name": "unpause",
      "outputs": [],
      "payable": false,
      "stateMutability": "nonpayable",
      "type": "function"
    },
    {
      "constant": true,
      "inputs": [],
      "name": "currentRoundStartDate",
      "outputs": [
        {
          "name": "",
          "type": "uint256"
        }
      ],
      "payable": false,
      "stateMutability": "view",
      "type": "function"
    },
    {
      "constant": true,
      "inputs": [],
      "name": "albFund",
      "outputs": [
        {
          "name": "",
          "type": "address"
        }
      ],
      "payable": false,
      "stateMutability": "view",
      "type": "function"
    },
    {
      "constant": true,
      "inputs": [],
      "name": "teamFund",
      "outputs": [
        {
          "name": "",
          "type": "address"
        }
      ],
      "payable": false,
      "stateMutability": "view",
      "type": "function"
    },
    {
      "constant": true,
      "inputs": [],
      "name": "paused",
      "outputs": [
        {
          "name": "",
          "type": "bool"
        }
      ],
      "payable": false,
      "stateMutability": "view",
      "type": "function"
    },
    {
      "constant": true,
      "inputs": [],
      "name": "totalTokensSold",
      "outputs": [
        {
          "name": "",
          "type": "uint256"
        }
      ],
      "payable": false,
      "stateMutability": "view",
      "type": "function"
    },
    {
      "constant": false,
      "inputs": [
        {
          "name": "_spender",
          "type": "address"
        },
        {
          "name": "_subtractedValue",
          "type": "uint256"
        }
      ],
      "name": "decreaseApproval",
      "outputs": [
        {
          "name": "",
          "type": "bool"
        }
      ],
      "payable": false,
      "stateMutability": "nonpayable",
      "type": "function"
    },
    {
      "constant": true,
      "inputs": [],
      "name": "totalEtherRaised",
      "outputs": [
        {
          "name": "",
          "type": "uint256"
        }
      ],
      "payable": false,
      "stateMutability": "view",
      "type": "function"
    },
    {
      "constant": true,
      "inputs": [
        {
          "name": "_owner",
          "type": "address"
        }
      ],
      "name": "balanceOf",
      "outputs": [
        {
          "name": "",
          "type": "uint256"
        }
      ],
      "payable": false,
      "stateMutability": "view",
      "type": "function"
    },
    {
      "constant": false,
      "inputs": [],
      "name": "renounceOwnership",
      "outputs": [],
      "payable": false,
      "stateMutability": "nonpayable",
      "type": "function"
    },
    {
      "constant": true,
      "inputs": [],
      "name": "currentRoundTokensSold",
      "outputs": [
        {
          "name": "",
          "type": "uint256"
        }
      ],
      "payable": false,
      "stateMutability": "view",
      "type": "function"
    },
    {
      "constant": false,
      "inputs": [],
      "name": "pause",
      "outputs": [],
      "payable": false,
      "stateMutability": "nonpayable",
      "type": "function"
    },
    {
      "constant": true,
      "inputs": [
        {
          "name": "",
          "type": "uint256"
        }
      ],
      "name": "rounds",
      "outputs": [
        {
          "name": "roundName",
          "type": "string"
        },
        {
          "name": "roundStartDate",
          "type": "uint256"
        },
        {
          "name": "roundEndDate",
          "type": "uint256"
        },
        {
          "name": "roundTokensSold",
          "type": "uint256"
        },
        {
          "name": "roundEthRaised",
          "type": "uint256"
        },
        {
          "name": "roundHardCap",
          "type": "uint256"
        },
        {
          "name": "roundBonus",
          "type": "uint8"
        },
        {
          "name": "roundCondition",
          "type": "bool"
        }
      ],
      "payable": false,
      "stateMutability": "view",
      "type": "function"
    },
    {
      "constant": true,
      "inputs": [],
      "name": "owner",
      "outputs": [
        {
          "name": "",
          "type": "address"
        }
      ],
      "payable": false,
      "stateMutability": "view",
      "type": "function"
    },
    {
      "constant": true,
      "inputs": [],
      "name": "symbol",
      "outputs": [
        {
          "name": "",
          "type": "string"
        }
      ],
      "payable": false,
      "stateMutability": "view",
      "type": "function"
    },
    {
      "constant": true,
      "inputs": [],
      "name": "currentRoundCondition",
      "outputs": [
        {
          "name": "",
          "type": "bool"
        }
      ],
      "payable": false,
      "stateMutability": "view",
      "type": "function"
    },
    {
      "constant": true,
      "inputs": [],
      "name": "currentRoundNumber",
      "outputs": [
        {
          "name": "",
          "type": "uint8"
        }
      ],
      "payable": false,
      "stateMutability": "view",
      "type": "function"
    },
    {
      "constant": true,
      "inputs": [],
      "name": "hCap",
      "outputs": [
        {
          "name": "",
          "type": "uint256"
        }
      ],
      "payable": false,
      "stateMutability": "view",
      "type": "function"
    },
    {
      "constant": true,
      "inputs": [
        {
          "name": "",
          "type": "address"
        }
      ],
      "name": "etherContributed",
      "outputs": [
        {
          "name": "",
          "type": "uint256"
        }
      ],
      "payable": false,
      "stateMutability": "view",
      "type": "function"
    },
    {
      "constant": true,
      "inputs": [],
      "name": "sCap",
      "outputs": [
        {
          "name": "",
          "type": "uint256"
        }
      ],
      "payable": false,
      "stateMutability": "view",
      "type": "function"
    },
    {
      "constant": true,
      "inputs": [],
      "name": "currentRoundRemainingTokens",
      "outputs": [
        {
          "name": "",
          "type": "uint256"
        }
      ],
      "payable": false,
      "stateMutability": "view",
      "type": "function"
    },
    {
      "constant": true,
      "inputs": [],
      "name": "TEAM_SUPPLY",
      "outputs": [
        {
          "name": "",
          "type": "uint256"
        }
      ],
      "payable": false,
      "stateMutability": "view",
      "type": "function"
    },
    {
      "constant": true,
      "inputs": [],
      "name": "bountyAddress",
      "outputs": [
        {
          "name": "",
          "type": "address"
        }
      ],
      "payable": false,
      "stateMutability": "view",
      "type": "function"
    },
    {
      "constant": false,
      "inputs": [
        {
          "name": "_spender",
          "type": "address"
        },
        {
          "name": "_addedValue",
          "type": "uint256"
        }
      ],
      "name": "increaseApproval",
      "outputs": [
        {
          "name": "",
          "type": "bool"
        }
      ],
      "payable": false,
      "stateMutability": "nonpayable",
      "type": "function"
    },
    {
      "constant": true,
      "inputs": [
        {
          "name": "",
          "type": "address"
        }
      ],
      "name": "bonus",
      "outputs": [
        {
          "name": "",
          "type": "uint256"
        }
      ],
      "payable": false,
      "stateMutability": "view",
      "type": "function"
    },
    {
      "constant": true,
      "inputs": [
        {
          "name": "_owner",
          "type": "address"
        },
        {
          "name": "_spender",
          "type": "address"
        }
      ],
      "name": "allowance",
      "outputs": [
        {
          "name": "",
          "type": "uint256"
        }
      ],
      "payable": false,
      "stateMutability": "view",
      "type": "function"
    },
    {
      "constant": true,
      "inputs": [],
      "name": "ALB_SUPPLY",
      "outputs": [
        {
          "name": "",
          "type": "uint256"
        }
      ],
      "payable": false,
      "stateMutability": "view",
      "type": "function"
    },
    {
      "constant": true,
      "inputs": [],
      "name": "currentAAAPerEther",
      "outputs": [
        {
          "name": "",
          "type": "uint256"
        }
      ],
      "payable": false,
      "stateMutability": "view",
      "type": "function"
    },
    {
      "constant": true,
      "inputs": [],
      "name": "currentRoundName",
      "outputs": [
        {
          "name": "",
          "type": "string"
        }
      ],
      "payable": false,
      "stateMutability": "view",
      "type": "function"
    },
    {
      "constant": false,
      "inputs": [
        {
          "name": "_newOwner",
          "type": "address"
        }
      ],
      "name": "transferOwnership",
      "outputs": [],
      "payable": false,
      "stateMutability": "nonpayable",
      "type": "function"
    },
    {
      "inputs": [],
      "payable": false,
      "stateMutability": "nonpayable",
      "type": "constructor"
    },
    {
      "payable": true,
      "stateMutability": "payable",
      "type": "fallback"
    },
    {
      "anonymous": false,
      "inputs": [
        {
          "indexed": true,
          "name": "to",
          "type": "address"
        },
        {
          "indexed": false,
          "name": "amount",
          "type": "uint256"
        }
      ],
      "name": "Mint",
      "type": "event"
    },
    {
      "anonymous": false,
      "inputs": [],
      "name": "MintFinished",
      "type": "event"
    },
    {
      "anonymous": false,
      "inputs": [
        {
          "indexed": true,
          "name": "owner",
          "type": "address"
        },
        {
          "indexed": true,
          "name": "spender",
          "type": "address"
        },
        {
          "indexed": false,
          "name": "value",
          "type": "uint256"
        }
      ],
      "name": "Approval",
      "type": "event"
    },
    {
      "anonymous": false,
      "inputs": [
        {
          "indexed": true,
          "name": "from",
          "type": "address"
        },
        {
          "indexed": true,
          "name": "to",
          "type": "address"
        },
        {
          "indexed": false,
          "name": "value",
          "type": "uint256"
        }
      ],
      "name": "Transfer",
      "type": "event"
    },
    {
      "anonymous": false,
      "inputs": [],
      "name": "Pause",
      "type": "event"
    },
    {
      "anonymous": false,
      "inputs": [],
      "name": "Unpause",
      "type": "event"
    },
    {
      "anonymous": false,
      "inputs": [
        {
          "indexed": true,
          "name": "previousOwner",
          "type": "address"
        }
      ],
      "name": "OwnershipRenounced",
      "type": "event"
    },
    {
      "anonymous": false,
      "inputs": [
        {
          "indexed": true,
          "name": "previousOwner",
          "type": "address"
        },
        {
          "indexed": true,
          "name": "newOwner",
          "type": "address"
        }
      ],
      "name": "OwnershipTransferred",
      "type": "event"
    },
    {
      "constant": false,
      "inputs": [
        {
          "name": "_roundNumber",
          "type": "uint8"
        }
      ],
      "name": "setCrowdsaleStage",
      "outputs": [],
      "payable": false,
      "stateMutability": "nonpayable",
      "type": "function"
    },
    {
      "constant": true,
      "inputs": [],
      "name": "getCrowdsaleStage",
      "outputs": [
        {
          "name": "",
          "type": "string"
        },
        {
          "name": "",
          "type": "uint256"
        },
        {
          "name": "",
          "type": "uint256"
        },
        {
          "name": "",
          "type": "uint256"
        },
        {
          "name": "",
          "type": "uint256"
        }
      ],
      "payable": false,
      "stateMutability": "view",
      "type": "function"
    },
    {
      "constant": false,
      "inputs": [
        {
          "name": "_to",
          "type": "address"
        },
        {
          "name": "_value",
          "type": "uint256"
        }
      ],
      "name": "transfer",
      "outputs": [
        {
          "name": "",
          "type": "bool"
        }
      ],
      "payable": false,
      "stateMutability": "nonpayable",
      "type": "function"
    },
    {
      "constant": false,
      "inputs": [
        {
          "name": "_from",
          "type": "address"
        },
        {
          "name": "_to",
          "type": "address"
        },
        {
          "name": "_value",
          "type": "uint256"
        }
      ],
      "name": "transferFrom",
      "outputs": [
        {
          "name": "",
          "type": "bool"
        }
      ],
      "payable": false,
      "stateMutability": "nonpayable",
      "type": "function"
    },
    {
      "constant": true,
      "inputs": [
        {
          "name": "_tok",
          "type": "uint256"
        }
      ],
      "name": "calculateBonus",
      "outputs": [
        {
          "name": "",
          "type": "uint256"
        }
      ],
      "payable": false,
      "stateMutability": "view",
      "type": "function"
    },
    {
      "constant": true,
      "inputs": [
        {
          "name": "_yourAddress",
          "type": "address"
        }
      ],
      "name": "getAccountDetails",
      "outputs": [
        {
          "name": "",
          "type": "uint256"
        },
        {
          "name": "",
          "type": "uint256"
        }
      ],
      "payable": false,
      "stateMutability": "view",
      "type": "function"
    },
    {
      "constant": false,
      "inputs": [],
      "name": "withdrawEther",
      "outputs": [],
      "payable": false,
      "stateMutability": "nonpayable",
      "type": "function"
    },
    {
      "constant": false,
      "inputs": [
        {
          "name": "_yourAddresss",
          "type": "address"
        }
      ],
      "name": "refundEther",
      "outputs": [],
      "payable": false,
      "stateMutability": "nonpayable",
      "type": "function"
    },
    {
      "constant": false,
      "inputs": [],
      "name": "endCurrentRoundSale",
      "outputs": [],
      "payable": false,
      "stateMutability": "nonpayable",
      "type": "function"
    },
    {
      "constant": false,
      "inputs": [
        {
          "name": "_to",
          "type": "address"
        },
        {
          "name": "_amount",
          "type": "uint256"
        }
      ],
      "name": "mint",
      "outputs": [
        {
          "name": "",
          "type": "bool"
        }
      ],
      "payable": false,
      "stateMutability": "nonpayable",
      "type": "function"
    },
    {
      "constant": false,
      "inputs": [],
      "name": "finishMinting",
      "outputs": [
        {
          "name": "",
          "type": "bool"
        }
      ],
      "payable": false,
      "stateMutability": "nonpayable",
      "type": "function"
    },
    {
      "constant": false,
      "inputs": [
        {
          "name": "to",
          "type": "address"
        },
        {
          "name": "tokens",
          "type": "uint256"
        }
      ],
      "name": "sendBounty",
      "outputs": [
        {
          "name": "",
          "type": "bool"
        }
      ],
      "payable": false,
      "stateMutability": "nonpayable",
      "type": "function"
    },
    {
      "constant": false,
      "inputs": [
        {
          "name": "startDate",
          "type": "uint32"
        },
        {
          "name": "endDate",
          "type": "uint32"
        }
      ],
      "name": "setDate",
      "outputs": [
        {
          "name": "",
          "type": "bool"
        }
      ],
      "payable": false,
      "stateMutability": "nonpayable",
      "type": "function"
    }
  ],
  "bytecode": "0x6000805460a060020a60ff021916905560c0604052600860808190527f56656761436f696e00000000000000000000000000000000000000000000000060a0908152620000509160049190620007bc565b506040805180820190915260038082527f414141000000000000000000000000000000000000000000000000000000000060209092019182526200009791600591620007bc565b5060068054601260ff19918216811790925569021e19e0c9bab2400000600755690cb49b44ba602d800000600855611388600955601180546201000060b060020a03191675453990c0aa4b3c616ceec05f5d909539920432f40000179055815473833ce4a216331af41961d01c5331e03ebfffb888600160a060020a0319918216179092556013805473cd637e775c8abc095bec957807f6e7e6628931c293169290921790915560006018819055601955601a80549091169055612710601b5561ea60601c55601d8054635ba5ff6163ffffffff199091161767ffffffff000000001916675ba750e0000000001790553480156200019457600080fd5b5060008054600160a060020a03191633908117825581526001602081815260408084206b012debc1a5da2ece8d000000908190556002556011805461ff001916905591835260158152815180830190925260078083527f526f756e64203100000000000000000000000000000000000000000000000000929091019182527f27739e4bb5e6f8b5e4b57a047dca8767cc9b982a011081e086cbb0dfa9de818d929182918291829182916200024b91889190620007bc565b50635b5312306001870155635b5463b0600280880191909155600060038801819055600488018190556a33b2e3c9fd0803ce800000600589015560068801805461ff001960ff199091166019171661010017905552601560209081526040805180820190915260078082527f526f756e64203200000000000000000000000000000000000000000000000000919092019081527f07d4ff730d9753101d832555708a37d38c2c45fce8cacaefc99f06074e93fe0b96506200030f91879190620007bc565b50635b55b5306001860155635b5706b0600286015560006003808701829055600487018290556a31a17e847807b1bc000000600588015560068701805461ff001960ff19909116601417166101001790559052601560209081526040805180820190915260078082527f526f756e64203300000000000000000000000000000000000000000000000000919092019081527fb3a65e8276bd33b3e4f7d6081ebd9899187264822358758dca2e2bc37b2a9c279550620003d191869190620007bc565b50635b5858306001850155635b59a9b0600285015560006003850181905560048086018290556a2f90193ef3075fa9800000600587015560068601805461ff001960ff19909116600f17166101001790559052601560209081526040805180820190915260078082527f526f756e64203400000000000000000000000000000000000000000000000000919092019081527f8191f4eb6b8bafbfe9a5389c8d07d7f5fd81137a7ee653fc4358269845ee1d2e94506200049391859190620007bc565b50635b5afb306001840155635b5c4cb06002840155600060038401819055600484018190556a2d7eb3f96e070d9700000060058086019190915560068501805461ff001960ff19909116600a17166101001790559052601560209081526040805180820190915260078082527f726f756e64203500000000000000000000000000000000000000000000000000919092019081527fbab719002e4be320868650dc7456e9a1d245e4d5dd64765588e2f21529d871d393506200055891849190620007bc565b5050635b5028b96001820155635b51cec06002820155600060038201819055600482018190556a2b6d4eb3e906bb848000006005808401919091556006808401805461ff001960ff1990911690931792909216610100179091559052601560209081526040805180820190915260078082527f526f756e64203600000000000000000000000000000000000000000000000000919092019081527f25847c9ccf691da811a9f934d6b3b92e6062ef92feb71bf4cb08cbb4fad8d6529162000621918391620007bc565b50635b5028b96001820155635b51cec0600282015560006003820181905560048201556a295be96e64066972000000600582015560068101805461ffff19166101001790556011546200069890600160a060020a03620100009091041669d3c21bcecceda1000000640100000000620006a5810204565b5050505050505062000861565b601a5460009060ff1615620006b957600080fd5b600254620006d6908364010000000062000be3620007a882021704565b600255600160a060020a0383166000908152600160205260409020546200070c908364010000000062000be3620007a882021704565b600160a060020a038416600081815260016020908152604091829020939093558051858152905191927f0f6798a560793a54c3bcfe86a93cde1e73087d944c0ea20544137d412139688592918290030190a2604080518381529051600160a060020a038516916000917fddf252ad1be2c89b69c2b068fc378daa952ba7f163c4a11628f55a4df523b3ef9181900360200190a350600192915050565b81810182811015620007b657fe5b92915050565b828054600181600116156101000203166002900490600052602060002090601f016020900481019282601f10620007ff57805160ff19168380011785556200082f565b828001600101855582156200082f579182015b828111156200082f57825182559160200191906001019062000812565b506200083d92915062000841565b5090565b6200085e91905b808211156200083d576000815560010162000848565b90565b611dd880620008716000396000f30060806040526004361061029d5763ffffffff7c010000000000000000000000000000000000000000000000000000000060003504166304269bc2811461041f57806305d2035b1461044657806306fdde031461046f578063095ea7b3146104f9578063121bde2d1461051d57806312bae48d1461053257806316fdb4891461056057806318160ddd146105755780631954f39e1461058a5780631cf294e01461059f5780631f378b8a146105ca57806323b872dd146105ed57806327359989146106175780632aceb5341461062c578063313ce567146106665780633e362c961461067b5780633f4ba83a14610690578063404704b9146106a557806340c10f19146106c9578063438b7534146106ed5780634af62112146107025780635495699f146107335780635b4012be146107485780635c975abb146107f15780636081f5cb1461080657806363b201171461081e5780636618846314610833578063691a58421461085757806370a082311461086c578063715018a61461088d5780637362377b146108a25780637d64bcb4146108b75780637dab3f13146108cc5780638456cb59146108e15780638c65c81f146108f65780638da5cb5b146109c157806395d89b41146109d65780639b0e905f146109eb5780639c4780d814610a005780639cb53d4a14610a15578063a82776dd14610a2a578063a9059cbb14610a4b578063af5f65ee14610a6f578063b4b19ef414610a84578063b9c3a81814610a99578063c516358f14610aae578063d1ed833814610ac3578063d73dd62314610ade578063d8cb4aa314610b02578063dd62ed3e14610b23578063ddb5c0ca14610b4a578063df80627614610b5f578063eaf75ba614610b74578063f2fde38b14610b89578063f42f68a114610baa578063f5781b8014610bbf575b60008067016345785d8a000034116102b457600080fd5b6009546018543491820293506102cf9163ffffffff610be316565b6018556019546102e5908363ffffffff610be316565b6019556102f182610bf6565b60008054600160a060020a031681526001602052604090205490915061031d908363ffffffff610c2316565b60008054600160a060020a0316815260016020908152604080832093909355338252601690522054610355908263ffffffff610be316565b33600090815260166020908152604080832093909355600190522054610381908363ffffffff610be316565b336000818152600160209081526040808320949094559054835186815293519293600160a060020a0390911692600080516020611d8d833981519152929181900390910190a3336000908152601760205260409020546103e7903463ffffffff610be316565b336000818152601760205260409020919091556104049082610c35565b50600d54610418908363ffffffff610be316565b600d555050005b34801561042b57600080fd5b50610434610d11565b60408051918252519081900360200190f35b34801561045257600080fd5b5061045b610d21565b604080519115158252519081900360200190f35b34801561047b57600080fd5b50610484610d2a565b6040805160208082528351818301528351919283929083019185019080838360005b838110156104be5781810151838201526020016104a6565b50505050905090810190601f1680156104eb5780820380516001836020036101000a031916815260200191505b509250505060405180910390f35b34801561050557600080fd5b5061045b600160a060020a0360043516602435610db8565b34801561052957600080fd5b50610434610e1e565b34801561053e57600080fd5b50610547610e24565b6040805163ffffffff9092168252519081900360200190f35b34801561056c57600080fd5b50610434610e30565b34801561058157600080fd5b50610434610e36565b34801561059657600080fd5b50610547610e3d565b3480156105ab57600080fd5b506105b4610e51565b6040805160ff9092168252519081900360200190f35b3480156105d657600080fd5b506105eb600160a060020a0360043516610e5a565b005b3480156105f957600080fd5b5061045b600160a060020a0360043581169060243516604435610ebf565b34801561062357600080fd5b50610434610ed4565b34801561063857600080fd5b5061064d600160a060020a0360043516610ee2565b6040805192835260208301919091528051918290030190f35b34801561067257600080fd5b506105b4610f3a565b34801561068757600080fd5b50610434610f43565b34801561069c57600080fd5b506105eb610f49565b3480156106b157600080fd5b5061045b600160a060020a0360043516602435610fd0565b3480156106d557600080fd5b5061045b600160a060020a0360043516602435610c35565b3480156106f957600080fd5b506104346110f2565b34801561070e57600080fd5b506107176110f8565b60408051600160a060020a039092168252519081900360200190f35b34801561073f57600080fd5b50610717611107565b34801561075457600080fd5b5061075d611116565b6040518080602001868152602001858152602001848152602001838152602001828103825287818151815260200191508051906020019080838360005b838110156107b257818101518382015260200161079a565b50505050905090810190601f1680156107df5780820380516001836020036101000a031916815260200191505b50965050505050505060405180910390f35b3480156107fd57600080fd5b5061045b6111de565b34801561081257600080fd5b50610434600435610bf6565b34801561082a57600080fd5b506104346111ff565b34801561083f57600080fd5b5061045b600160a060020a0360043516602435611205565b34801561086357600080fd5b506104346112f4565b34801561087857600080fd5b50610434600160a060020a03600435166112fa565b34801561089957600080fd5b506105eb611315565b3480156108ae57600080fd5b506105eb611381565b3480156108c357600080fd5b5061045b6113c2565b3480156108d857600080fd5b50610434611426565b3480156108ed57600080fd5b506105eb61142c565b34801561090257600080fd5b5061090e6004356114c9565b60405180806020018981526020018881526020018781526020018681526020018581526020018460ff1660ff1681526020018315151515815260200182810382528a818151815260200191508051906020019080838360005b8381101561097f578181015183820152602001610967565b50505050905090810190601f1680156109ac5780820380516001836020036101000a031916815260200191505b50995050505050505050505060405180910390f35b3480156109cd57600080fd5b5061071761159d565b3480156109e257600080fd5b506104846115ac565b3480156109f757600080fd5b5061045b611607565b348015610a0c57600080fd5b506105b4611610565b348015610a2157600080fd5b5061043461161e565b348015610a3657600080fd5b50610434600160a060020a0360043516611624565b348015610a5757600080fd5b5061045b600160a060020a0360043516602435611636565b348015610a7b57600080fd5b50610434611649565b348015610a9057600080fd5b5061043461164f565b348015610aa557600080fd5b50610434611655565b348015610aba57600080fd5b50610717611664565b348015610acf57600080fd5b506105eb60ff60043516611679565b348015610aea57600080fd5b5061045b600160a060020a0360043516602435611742565b348015610b0e57600080fd5b50610434600160a060020a03600435166117db565b348015610b2f57600080fd5b50610434600160a060020a03600435811690602435166117ed565b348015610b5657600080fd5b50610434611818565b348015610b6b57600080fd5b50610434611827565b348015610b8057600080fd5b5061048461182d565b348015610b9557600080fd5b506105eb600160a060020a0360043516611888565b348015610bb657600080fd5b506105eb6118ab565b348015610bcb57600080fd5b5061045b63ffffffff600435811690602435166119c7565b81810182811015610bf057fe5b92915050565b600c54600090610bf090606490610c1790859060ff1663ffffffff6119fe16565b9063ffffffff611a2716565b600082821115610c2f57fe5b50900390565b601a5460009060ff1615610c4857600080fd5b600254610c5b908363ffffffff610be316565b600255600160a060020a038316600090815260016020526040902054610c87908363ffffffff610be316565b600160a060020a038416600081815260016020908152604091829020939093558051858152905191927f0f6798a560793a54c3bcfe86a93cde1e73087d944c0ea20544137d412139688592918290030190a2604080518381529051600160a060020a03851691600091600080516020611d8d8339815191529181900360200190a350600192915050565b6b012debc1a5da2ece8d00000081565b601a5460ff1681565b6004805460408051602060026001851615610100026000190190941693909304601f81018490048402820184019092528181529291830182828015610db05780601f10610d8557610100808354040283529160200191610db0565b820191906000526020600020905b815481529060010190602001808311610d9357829003601f168201915b505050505081565b336000818152600360209081526040808320600160a060020a038716808552908352818420869055815186815291519394909390927f8c5be1e5ebec7d5bd14f71427d1e84f3dd0314c0f7b2291e5b200ac8c7c3b925928290030190a350600192915050565b600f5481565b601d5463ffffffff1681565b600a5481565b6002545b90565b601d54640100000000900463ffffffff1681565b600c5460ff1681565b600160a060020a038116600081815260176020526040808220805490839055905190929183156108fc02918491818181858888f19350505050158015610ea4573d6000803e3d6000fd5b50601854610eb8908263ffffffff610c2316565b6018555050565b6000610ecc848484611a3c565b949350505050565b69d3c21bcecceda100000081565b600160a060020a03811660009081526016602090815260408083205460019092528220548291610f18919063ffffffff610c2316565b600160a060020a03939093166000908152601660205260409020549293915050565b60065460ff1681565b60145481565b600054600160a060020a03163314610f6057600080fd5b60005474010000000000000000000000000000000000000000900460ff161515610f8957600080fd5b6000805474ff0000000000000000000000000000000000000000191681556040517f7805862f689e2f13df9f062ff482ad3ad112aca9e0847911ed832e158c525b339190a1565b600080610feb83670de0b6b3a764000063ffffffff6119fe16565b905069d3c21bcecceda100000061100d60145483610be390919063ffffffff16565b1061101757600080fd5b601154604080518381529051600160a060020a03808816936201000090041691600080516020611d8d833981519152919081900360200190a3600160a060020a038416600090815260016020526040902054611079908263ffffffff610be316565b600160a060020a0380861660009081526001602052604080822093909355601154620100009004909116815220546110b7908263ffffffff610c2316565b601154620100009004600160a060020a03166000908152600160205260409020556014546110e59082610be3565b6014555060019392505050565b600e5481565b601354600160a060020a031681565b601254600160a060020a031681565b6060600080600080600b600e54600f54600a54611140600d54600a54610c2390919063ffffffff16565b8454604080516020601f600260001961010060018816150201909516949094049384018190048102820181019092528281529187918301828280156111c65780601f1061119b576101008083540402835291602001916111c6565b820191906000526020600020905b8154815290600101906020018083116111a957829003601f168201915b50505050509450945094509450945094509091929394565b60005474010000000000000000000000000000000000000000900460ff1681565b60195481565b336000908152600360209081526040808320600160a060020a038616845290915281205480831061125957336000908152600360209081526040808320600160a060020a038816845290915281205561128e565b611269818463ffffffff610c2316565b336000908152600360209081526040808320600160a060020a03891684529091529020555b336000818152600360209081526040808320600160a060020a0389168085529083529281902054815190815290519293927f8c5be1e5ebec7d5bd14f71427d1e84f3dd0314c0f7b2291e5b200ac8c7c3b925929181900390910190a35060019392505050565b60185481565b600160a060020a031660009081526001602052604090205490565b600054600160a060020a0316331461132c57600080fd5b60008054604051600160a060020a03909116917ff8df31144d9c2f0f6b59d69b8b98abd5459d07f2742c4df920b25aae33c6482091a26000805473ffffffffffffffffffffffffffffffffffffffff19169055565b600080546040513092600160a060020a0390921691833180156108fc02929091818181858888f193505050501580156113be573d6000803e3d6000fd5b5050565b60008054600160a060020a031633146113da57600080fd5b601a5460ff16156113ea57600080fd5b601a805460ff191660011790556040517fae5184fba832cb2b1f702aca6117b8d265eaf03ad33eb133f19dde0f5920fa0890600090a150600190565b600d5481565b600054600160a060020a0316331461144357600080fd5b60005474010000000000000000000000000000000000000000900460ff161561146b57600080fd5b6000805474ff00000000000000000000000000000000000000001916740100000000000000000000000000000000000000001781556040517f6985a02210a168e66602d3235cb6db0e70f92b3ba4d376a33c0f3d9434bff6259190a1565b60156020908152600091825260409182902080548351601f600260001961010060018616150201909316929092049182018490048402810184019094528084529092918391908301828280156115605780601f1061153557610100808354040283529160200191611560565b820191906000526020600020905b81548152906001019060200180831161154357829003601f168201915b5050506001840154600285015460038601546004870154600588015460069098015496979396929550909350919060ff8082169161010090041688565b600054600160a060020a031681565b6005805460408051602060026001851615610100026000190190941693909304601f81018490048402820184019092528181529291830182828015610db05780601f10610d8557610100808354040283529160200191610db0565b60115460ff1681565b601154610100900460ff1681565b601c5481565b60176020526000908152604090205481565b60006116428383611ba1565b9392505050565b601b5481565b60105481565b6a0b2ef8ab2961fd6200000081565b601154620100009004600160a060020a031681565b60008160ff16118015611690575060068160ff1611155b151561169b57600080fd5b60ff8116600090815260156020526040902080546116ce91600b9160026000196101006001841615020190911604611ced565b5060ff90811660008181526015602052604090206005810154600a55600681018054600c805491861660ff199283161790556003830154600d556001830154600e55600290920154600f5554601180549092166101009182900490941615159390931761ff00191692909102919091179055565b336000908152600360209081526040808320600160a060020a0386168452909152812054611776908363ffffffff610be316565b336000818152600360209081526040808320600160a060020a0389168085529083529281902085905580519485525191937f8c5be1e5ebec7d5bd14f71427d1e84f3dd0314c0f7b2291e5b200ac8c7c3b925929081900390910190a350600192915050565b60166020526000908152604090205481565b600160a060020a03918216600090815260036020908152604080832093909416825291909152205490565b6a1060d026983ffaa700000081565b60095481565b600b805460408051602060026001851615610100026000190190941693909304601f81018490048402820184019092528181529291830182828015610db05780601f10610d8557610100808354040283529160200191610db0565b600054600160a060020a0316331461189f57600080fd5b6118a881611c70565b50565b6000600f544211806118c15750600a54600d5410155b15156118cc57600080fd5b600054600160a060020a031633146118e357600080fd5b6011805460ff191690819055600661010090910460ff1614156118a857601954611920906b012debc1a5da2ece8d0000009063ffffffff610c2316565b60008054600160a060020a031681526001602052604090205490915061194c908263ffffffff610c2316565b60008054600160a060020a0316815260016020526040902055600254611978908263ffffffff610c2316565b60025560125461199c90600160a060020a03166a0b2ef8ab2961fd62000000610c35565b506013546119be90600160a060020a03166a1060d026983ffaa7000000610c35565b506113be6113c2565b601d805463ffffffff9283166401000000000267ffffffff00000000199490931663ffffffff199091161792909216179055600190565b6000821515611a0f57506000610bf0565b50818102818382811515611a1f57fe5b0414610bf057fe5b60008183811515611a3457fe5b049392505050565b600160a060020a038316600090815260016020526040812054821115611a6157600080fd5b600160a060020a0384166000908152600360209081526040808320338452909152902054821115611a9157600080fd5b600160a060020a0383161515611aa657600080fd5b600160a060020a038416600090815260016020526040902054611acf908363ffffffff610c2316565b600160a060020a038086166000908152600160205260408082209390935590851681522054611b04908363ffffffff610be316565b600160a060020a038085166000908152600160209081526040808320949094559187168152600382528281203382529091522054611b48908363ffffffff610c2316565b600160a060020a0380861660008181526003602090815260408083203384528252918290209490945580518681529051928716939192600080516020611d8d833981519152929181900390910190a35060019392505050565b33600090815260016020526040812054821115611bbd57600080fd5b600160a060020a0383161515611bd257600080fd5b33600090815260016020526040902054611bf2908363ffffffff610c2316565b3360009081526001602052604080822092909255600160a060020a03851681522054611c24908363ffffffff610be316565b600160a060020a038416600081815260016020908152604091829020939093558051858152905191923392600080516020611d8d8339815191529281900390910190a350600192915050565b600160a060020a0381161515611c8557600080fd5b60008054604051600160a060020a03808516939216917f8be0079c531659141344cd1fd0a4f28419497f9722a3daafe3b4186f6b6457e091a36000805473ffffffffffffffffffffffffffffffffffffffff1916600160a060020a0392909216919091179055565b828054600181600116156101000203166002900490600052602060002090601f016020900481019282601f10611d265780548555611d62565b82800160010185558215611d6257600052602060002091601f016020900482015b82811115611d62578254825591600101919060010190611d47565b50611d6e929150611d72565b5090565b610e3a91905b80821115611d6e5760008155600101611d785600ddf252ad1be2c89b69c2b068fc378daa952ba7f163c4a11628f55a4df523b3efa165627a7a72305820f4253545dbe5359ead0818e56d00a90dcee6a38a47ea395a791f4d629daab2f20029",
  "source": "pragma solidity ^0.4.24;\n\nimport \"../node_modules/openzeppelin-solidity/contracts/token/ERC20/StandardToken.sol\";\nimport \"../node_modules/openzeppelin-solidity/contracts/lifecycle/Pausable.sol\";\n\n\n\ncontract VegaCoinCrowdsale is Pausable, StandardToken {\n    \n    // Token Details\n    string public name = \"VegaCoin\";\n    string public symbol = \"AAA\";\n    uint8 public decimals = 18;\n\n    // Supply Details \n    uint256 constant public ICO_SUPPLY= 365000000e18;\n    uint256 constant public TEAM_SUPPLY = 13520000e18;       //26% of675m = 175.5M\n    uint256 constant public ALB_SUPPLY = 19800000e18;        //4% of 675M = 27M\n    uint256 constant public MAX_BOUNTY_TOKENS = 1000000e18;\n\n    // Ether details\n    uint256 private softCap = 10000 ether;\n    uint256 private hardCap = 60000 ether;\n    uint256 public currentAAAPerEther = 5000;\n\n    // Current Round Details\n    uint256 public currentRoundHardCap;\n    string public currentRoundName;\n    //commenting akash\n    //uint8 public currentRoundBonus = 25;         //for development\n    uint8 public currentRoundBonus;\n    uint256 public currentRoundTokensSold;\n    uint256 public currentRoundStartDate;\n    uint256 public currentRoundEndDate;\n    uint256 public currentRoundRemainingTokens;\n    //bool public currentRoundCondition = false;   //for development\n    bool public currentRoundCondition;\n    //uint8 public currentRoundNumber = 0;         //for development\n    uint8 public currentRoundNumber;\n    \n    // Events\n    event Mint(address indexed to, uint256 amount);\n    event MintFinished();\n    \n    // Addresses\n    address public bountyAddress = 0x453990C0AA4b3C616CEeC05f5D909539920432F4;\n    address public teamFund = 0x833cE4a216331af41961D01c5331e03EBfffb888;   // team wallet address\n    address public albFund = 0xCd637E775C8ABC095BEc957807f6E7E6628931C2;    // advisors_and_legal_and_bountyFund wallet address\n    uint256 public bountyCount;\n\n    struct Round {\n        string roundName;\n        uint256 roundStartDate;\n        uint256 roundEndDate;\n        uint256 roundTokensSold;\n        uint256 roundEthRaised;\n        uint256 roundHardCap;\n        uint8 roundBonus;\n        bool roundCondition;\n    }\n\n    mapping (uint256 => Round) public rounds;\n    mapping (address => uint256) public bonus;\n    mapping (address => uint256) public etherContributed;\n\n    uint256 public totalEtherRaised = 0;\n    uint256 public totalTokensSold = 0;\n    bool public mintingFinished = false;\n    uint public sCap = 10000;\n    uint public hCap = 60000;\n    uint32 public StartDate = 1537605473; \n    uint32 public EndDate = 1537691872;\n\n    constructor() public{\n        \n        balances[msg.sender] = ICO_SUPPLY;\n        totalSupply_ = ICO_SUPPLY;\n        currentRoundNumber = 0;\n\n        //Round One\n        Round storage roundOne = rounds[1];\n        roundOne.roundName = \"Round 1\";\n        roundOne.roundStartDate = 1532170800;        //1st -Aug   \n        roundOne.roundEndDate = 1532257200;          //14th -Aug\n        roundOne.roundTokensSold = 0;\n        roundOne.roundEthRaised = 0;\n        roundOne.roundHardCap = 62500000e18 ;\n        roundOne.roundBonus = 25;\n        roundOne.roundCondition = true;\n\n       //Round Two\n        Round storage roundTwo = rounds[2];\n        roundTwo.roundName = \"Round 2\";\n        roundTwo.roundStartDate = 1532343600;        //15th Aug\n        roundTwo.roundEndDate = 1532430000;          //29th Sept\n        roundTwo.roundTokensSold = 0;\n        roundTwo.roundEthRaised = 0;\n        roundTwo.roundHardCap = 60000000e18;\n        roundTwo.roundBonus = 20;\n        roundTwo.roundCondition = true;\n\n       //Round Three\n        Round storage roundThree = rounds[3];\n        roundThree.roundName = \"Round 3\";\n        roundThree.roundStartDate = 1532516400;        //30th Oct\n        roundThree.roundEndDate = 1532602800;          //13th Sept\n        roundThree.roundTokensSold = 0;\n        roundThree.roundEthRaised = 0;\n        roundThree.roundHardCap = 57500000e18;\n        roundThree.roundBonus=15;\n        roundThree.roundCondition = true;\n\n        //Round Four\n        Round storage roundFour = rounds[4];\n        roundFour.roundName = \"Round 4\";\n        roundFour.roundStartDate = 1532689200;        //14th Sept\n        roundFour.roundEndDate = 1532775600;          //29th Sept\n        roundFour.roundTokensSold = 0;\n        roundFour.roundEthRaised = 0;\n        roundFour.roundHardCap = 55000000e18;\n        roundFour.roundBonus = 10;\n        roundFour.roundCondition = true;\n\n        //Round Five\n        Round storage roundFive = rounds[5];\n        roundFive.roundName = \"round 5\";\n        roundFive.roundStartDate = 1531979961;        //30th Sept\n        roundFive.roundEndDate = 1532088000;          //14th Oct\n        roundFive.roundTokensSold = 0;\n        roundFive.roundEthRaised = 0;\n        roundFive.roundHardCap = 52500000e18;\n        roundFive.roundBonus = 5;\n        roundFive.roundCondition = true;\n\n        //Round Six\n        Round storage roundSix = rounds[6];\n        roundSix.roundName = \"Round 6\";\n        roundSix.roundStartDate = 1531979961;        //15th Oct\n        roundSix.roundEndDate = 1532088000;          //30th Oct\n        roundSix.roundTokensSold = 0;\n        roundSix.roundEthRaised = 0;\n        roundSix.roundHardCap = 50000000e18;\n        roundSix.roundBonus = 0;\n        roundSix.roundCondition = true;\n        \n        mint(bountyAddress,MAX_BOUNTY_TOKENS);\n   \n    }   \n    \n    // Modifiers\n    modifier canMint() {\n        require(!mintingFinished);\n        _;\n    }\n\n    modifier softCapNotReached(){\n        require (totalEtherRaised < softCap);\n        _;\n    }\n    \n    modifier saleIsOn(){\n        require((now > currentRoundStartDate) && (now < currentRoundEndDate));\n        _;\n    }\n    \n    modifier currentSaleisFinished(){///\n        require((now > currentRoundEndDate) || (currentRoundTokensSold >= currentRoundHardCap)) ;\n        _;\n    }\n    \n    modifier saleIsFinished(){\n        require(now > EndDate + 30 days); // 155555 = end date of round6\n        _;\n    }\n    \n    modifier canTransfer(address sender){\n        if (sender == teamFund) \n            require(now > (EndDate + 365 days));\n        else if (sender == albFund) \n            require(now > (EndDate + 365 days));\n        else  \n            require(now > (EndDate + 30 days));    \n         _;\n    }\n    \n    modifier softCapReached(){\n        require(totalEtherRaised >= softCap);\n        _;\n    }\n    //correct with round6end date\n    modifier roundSixOver(){\n        require ((now > currentRoundEndDate) || (currentRoundTokensSold == currentRoundHardCap) );\n        _;\n    }\n    \n    //onlyOwner\n    function setCrowdsaleStage(uint8 _roundNumber) external {\n        require(_roundNumber > 0 && _roundNumber <= 6);\n        currentRoundName= rounds[_roundNumber].roundName;\n        currentRoundHardCap = rounds[_roundNumber].roundHardCap;\n        currentRoundBonus = rounds[_roundNumber].roundBonus; \n        currentRoundTokensSold = rounds[_roundNumber].roundTokensSold;  \n        currentRoundStartDate = rounds[_roundNumber].roundStartDate;\n        currentRoundEndDate = rounds[_roundNumber].roundEndDate;\n        currentRoundCondition = rounds[_roundNumber].roundCondition;\n        currentRoundNumber = _roundNumber; \n    }\n\n    function getCrowdsaleStage() external view returns (string, uint256, uint256, uint256, uint256)  {\n        \n        return(\n            currentRoundName,\n            currentRoundStartDate,\n            currentRoundEndDate,\n            currentRoundHardCap,\n            currentRoundHardCap.sub(currentRoundTokensSold)        \n        );\n        \n    }\n    \n    //canTransfer(msg.sender)\n    function transfer(address _to, uint256 _value) public returns (bool){\n        return super.transfer(_to, _value);\n    }\n    //canTransfer(_from)\n    function transferFrom(address _from, address _to, uint256 _value) public  returns (bool) {\n        return super.transferFrom(_from, _to, _value);\n    }\n\n    //internal //have done view\n    function calculateBonus(uint256 _tok) public view returns (uint256) {\n        return((_tok.mul(currentRoundBonus)).div(100)); \n    }\n\n    function getAccountDetails(address _yourAddress) external view returns (uint256,uint256) {\n        return(balances[_yourAddress].sub(bonus[_yourAddress]), bonus[_yourAddress]);\n    }\n\n    function () external  payable {//saleIsonn whenNotPaused\n\n        //require(currentRoundCondition == true);\n        require(msg.value > 100000000000000000);\n        //require (totalEtherRaised + msg.value <= hardCap);\n        uint256 tokens;\n        uint256 bonustokens;\n        tokens = msg.value * currentAAAPerEther;\n        //require(currentRoundTokensSold + tokens <= currentRoundHardCap);\n        totalEtherRaised = totalEtherRaised.add(msg.value);\n        totalTokensSold = totalTokensSold.add(tokens); \n        bonustokens = calculateBonus(tokens);\n        balances[owner] = balances[owner].sub(tokens);\n        bonus[msg.sender] = bonus[msg.sender].add(bonustokens);\n\n        balances[msg.sender] = balances[msg.sender].add(tokens);\n        emit Transfer(owner, msg.sender, tokens);\n        \n        etherContributed[msg.sender] =  etherContributed[msg.sender].add(msg.value);\n        mint(msg.sender,bonustokens);\n        currentRoundTokensSold = currentRoundTokensSold.add(tokens);\n\n    }\n    //onlyOwner saleIsFinished  softCapReached\n    function withdrawEther() external {\n        //require(owner != 0);\n        address thisAddress = this;\n        owner.transfer(thisAddress.balance);\n    }\n\n    //refund of ether if the softcap is not reached.\n    //saleIsFinished softCapNotReached\n    function refundEther(address _yourAddresss) external {//internal{\n        //convert value\n        uint256 value = etherContributed[_yourAddresss];\n        etherContributed[_yourAddresss] = 0;\n        _yourAddresss.transfer(value);\n        totalEtherRaised=totalEtherRaised.sub(value);\n        \n    }\n    // Merge End Ico Sale into endCurrent Round Sale.\n    function endCurrentRoundSale() external currentSaleisFinished onlyOwner{\n    //either the hardcap is reached or time for that round has ended.\n        uint256 burnRemaining;\n        currentRoundCondition = false;\n        if (currentRoundNumber == 6) {\n            \n            burnRemaining = ICO_SUPPLY.sub(totalTokensSold);\n            balances[owner]= balances[owner].sub(burnRemaining);\n            totalSupply_ = totalSupply_.sub(burnRemaining);\n            mint(teamFund,TEAM_SUPPLY);\n            mint(albFund,ALB_SUPPLY);\n            finishMinting();\n            \n        }\n        \n    }\n    \n    function mint(address _to, uint256 _amount) public canMint returns (bool){\n        totalSupply_ = totalSupply_.add(_amount);\n        balances[_to] = balances[_to].add(_amount);\n        emit Mint(_to, _amount);\n        emit Transfer(address(0), _to, _amount);\n        return true;\n   }\n   \n   function finishMinting() public onlyOwner canMint returns (bool) {\n        mintingFinished = true;\n        emit MintFinished();\n        return true;\n   }\n   \n  function sendBounty(address to, uint256 tokens) external returns (bool) {\n        uint256 tok = tokens.mul(1e18);\n        require ((tok.add(bountyCount))  < MAX_BOUNTY_TOKENS );\n        emit Transfer(bountyAddress, to, tok);\n        balances[to] = balances[to].add(tok);\n        balances[bountyAddress]= balances[bountyAddress].sub(tok);\n        bountyCount = bountyCount.add(tok);\n        return true;\n    }\n\n    function setDate(uint32 startDate, uint32 endDate) external returns (bool) {\n        StartDate = startDate;\n        EndDate = endDate;\n        return true;\n    }\n\n}",
  "sourcePath": "/home/akshit/BlockchainWorkspace/testing-with-mocha/vega/contracts/VegaCoinCrowdsale.sol",
  "compiler": {
    "name": "solc",
    "version": "0.4.24+commit.e67f0147.Emscripten.clang"
  },
  "schemaVersion": "2.0.1",
  "updatedAt": "2018-10-03T05:24:07.297Z"
}